:100050000091B5011091B401102359F010E01093F4
:10006000B5015F9A14E00E943C195F9810E010936C
:100070009A0170918201112700919A01071720F4CB
:10008000039500939A011FEF1095C9F010E01093AB
:100090009A0110919C01109510939C011FEFE12E85
:1000A0001091B401112359F05F9A10919C01112312
:1000B00011F013E001C012E00E943C195F98112773
:1000C000009199017BE4071720F4039500939901AF
:1000D0001FEF109551F010919D01109510939D0107
:1000E00010E0109399011FEFD12E10E010938F01B3
:1000F0004A9B14C01127009183017FE0071720F469
:100100000395009383011FEF1095B9F01FEF109333
:100110008B011093870110938F010FC0112700915D
:10012000830170E0701720F40A95009383011FEF9C
:10013000109519F010E0109387014B9B14C0112704
:10014000009184017FE0071720F403950093840158
:100150001FEF1095B9F01FEF10938C0110938801D9
:1001600010938F010FC011270091840170E0701768
:1001700020F40A95009384011FEF109519F010E008
:1001800010938801189B14C01127009185017FE00E
:10019000071720F40395009385011FEF1095B9F020
:1001A0001FEF10938D011093890110938F010FC0E1
:1001B00011270091850170E0701720F40A950093D3
:1001C00085011FEF109519F010E010938901199B1C
:1001D00014C01127009186017FE0071720F40395D2
:1001E000009386011FEF1095B9F01FEF10938E0159
:1001F00010938A0110938F010FC01127009186017F
:1002000070E0701720F40A95009386011FEF109597
:1002100019F010E010938A011FEFC12E08951FEF0F
:100220001093A10108951FEF1093A00108951FEFEF
:1002300010939F0108951DE11CBD11E01DBD17EC39
:1002400015B918E314B910917C00106C10937C0060
:100250001AE018B918E017B91EE01BB912EA1AB96A
:1002600008952D981DE71CBD10917E011EBD1DB582
:1002700017FFFDCF10917F011EBD1DB517FFFDCFEC
:100280001DE31CBD5D9A00000000000000005D98A9
:100290000895219710E000E000937E0110937F0104
:1002A000A1E8B1E019810E94881D012F10919C01E5
:1002B0001023109551F0E2EFF1E009811127E00FD2
:1002C000F11F10811F7710937E01AEE7B1E0198115
:1002D000195F0E94791D1981123071F51A81103051
:1002E00051F410919C01112329F010917F011861A4
:1002F00010937F0138C0113011F0133031F4109198
:100300007F01186110937F012EC0163059F017300D
:1003100049F0193009F406C0153029F510919C01F7
:10032000112331F0AFE7B1E013E00E946E1D1BC056
:10033000AFE7B1E014E0F9CF1330A9F410919D01BB
:10034000112339F00091800110918101107F102755
:1003500003C010918001107F188300917F011881E4
:10036000102B10937F017DDF0895E2EFF1E009810A
:100370001127E00FF11FEF93FF930A81A0E1B0E096
:10038000E89445F80E94141C980108810F70112709
:10039000020F131FFCE3E2EBE00FF11F1491FF913A
:1003A000EF911083E2EFF1E009810F5F1127E00F79
:1003B000F11FEF93FF930A81B0E0E89445F80E94A3
:1003C000141C9801088102950F701127020F131F4A
:1003D000FCE3E2EBE00FF11F1491FF91EF9110832A
:1003E0000895E2EFF1E009811127E00FF11FEF938B
:1003F000FF930A81A0E1B0E0E89445F80E94141C44
:10040000980118810E944E1D1F70012F1127020FA5
:10041000131FFCE3E2EBE00FF11F1491FF91EF914A
:10042000108308951A811A931A811A931A810E94CF
:100430004E1D1A939ADF2396089522970A811B81F5
:10044000A0E81A27103809F4003018F00A811B813F
:1004500006C00A811B81019509F41A9510950E9426
:10046000561D1983088312E01A9310E01A931A811B
:100470001A937BDF239612E01A931A931B811A9327
:1004800074DF23960A811B81A0E81A27103809F42B
:10049000003018F410E41093F5010895219710E04E
:1004A0001883143060F4E2EFF1E008811127E00FC7
:1004B000F11F1083188113951883112391F710E011
:1004C00000E000937E0110937F01CBDE0895088148
:1004D0001981E5E7F1E0B1E00E940E1D18E01A93E2
:1004E000109198011A93D5DE2396E8E9F1E024975C
:1004F000FB83EA8313E0198310E018830E94211D17
:10050000249610E002E00E942D19062D017031F7AB
:100510000895ECE0F0E00E946A19A12E1091A50167
:100520001A9318E01A9315E11A930E943B1D239623
:10053000112331F000910A001FEF00FF112701C0C5
:1005400010E01093B40100910A001FEF02FF112781
:100550001093BF011FEF01FF11271093C0010895F1
:1005600010E010938001109381011091BB011430B1
:1005700078F4A0E8B1E00091BB0117E0101B0E94E5
:100580006E1D1091B901103019F010EF1093810118
:10059000089512E01A9310E01A931091AA011A9389
:1005A00041DF239612E01A931A931091A9011A932E
:1005B00039DF2396D5DF16E010937C01089518816A
:1005C0001A9310E01A931091A6011A932BDF239629
:1005D00018811A9312E01A931091A5011A9322DF41
:1005E0002396BEDF10E010937C0108951091BB01AB
:1005F000143020F512E01A9310E01A93E6ECF1E0C3
:100600000091BB011127E00FF11F10811A930ADF3F
:10061000239612E01A931A93EAECF1E00091BB01E1
:100620001127E00FF11F10811A93FCDE239698DF4B
:10063000109180011093810113E011C010E010931C
:10064000F5011FE31093F40111E71093F3011093E8
:10065000F20110E0109380011093810114E01093D7
:100660007C0111E004EFE5E7F1E0B1E00E940E1D2E
:10067000089510E01093F50119E71093F4011DE3BC
:100680001093F3011093F20110E010938001109386
:10069000810108EC1A930A931ADF229608951AEF43
:1006A00010938201062D017009F0A1C010917D0107
:1006B000103009F04AC010917B01103011F429DF8D
:1006C0002AC0113041F425DF1091A401173019F12F
:1006D00010F11FC020C0123019F51BDF1091A401CA
:1006E000183091F088F00091AE011091AF011A938B
:1006F0000A93A3DE249634DFE2EFF1E013E61083E1
:1007000019E010937C0173C01091A401173019F007
:1007100010F03FDF6CC012E01A9351DF219667C0E2
:10072000143091F419E010937C010091AE01109106
:10073000AF011A930A9381DE249610E01093B4015E
:100740001093BF011093C00152C0173011F0163042
:1007500041F412E01A9333DF219611E010937C01EB
:1007600009C0113011F415DF0AC0183011F019302A
:1007700051F40FDF10E0109380011093810110E01D
:100780001093B40134C0133031F0143021F015301F
:1007900011F01D3029F42ADF11E010937C01EFCF16
:1007A0001A3031F01B3021F01C3011F01230F9F406
:1007B00010E0109380011093810112E01A9310E071
:1007C0001A931091C2011A932DDE239612E01A9308
:1007D0001A931091C1011A9325DE239615E0109308
:1007E0007C011DE7109382011FEF1093B40108955F
:1007F0002797B6DE12E01A9310E01A931091AD011C
:100800001A9310DE239612E01A931A931091AC01FA
:100810001A9308DE239613E01D8310E0188312302C
:1008200008F045C011E01B8310E01E831630C8F5A8
:10083000E2EFF1E00D811127E00FF11F1B81108322
:1008400010E01C83103128F510918F011F930E9436
:100850005F180F91102B09F08CC01C8104E00E94DE
:10086000051C098318E01A931A811A9312DD239646
:1008700010E001E00E942D1909811D81011721F46A
:1008800010E007E00E942D191C8113951C83112391
:10089000C9F61B81110F1B831E8113951E83112323
:1008A00029F6188113951883112309F0B8CF1D81FB
:1008B000103039F412E01A931E811A931091A60198
:1008C00015C0113059F412E01A931E811A93109139
:1008D000A6010AE00E94051C1A930CC0123069F4AC
:1008E00012E01A931E811A931091A5010AE00E944A
:1008F000051C0A9376DD23960EC0133061F412E0D6
:100900001A931E811A931091A5010AE00E94051CFA
:100910001A9367DD239610E01C83103220F51091A6
:100920008F011F930E945F180F91102B11F51C81EE
:1009300004E00E94051C098318E01A931A811A9397
:10094000A8DC239610E001E00E942D1909811D8189
:10095000011721F410E007E00E942D191C81139566
:100960001C831123D1F61D811A951D831F3F09F0A9
:1009700054CF08956097F4DD12E01A9310E01A93B3
:100980001091AD011A934EDD239612E01A931A933B
:100990001091AC011A9346DD23961091A5010AE04F
:1009A0000E94051C1B831F5F1F831091A5010AE095
:1009B0000E94051C102F1C831F5F18871091A60131
:1009C0000AE00E94051C19831F5F1D831091A60178
:1009D0000AE00E94051C102F1A831F5F1E8310E07F
:1009E0001C8712E01B8713E01A8710E01E8710E0B7
:1009F000188312E01F8710E0198718E01A931F85EB
:100A00001A9347DC239610E001E00E942D19109103
:100A10008F01112309F019C10E851A85011709F0FC
:100A2000C3C010E007E00E942D19FE013C967F85AF
:100A300011270C85071718F4039500831FEF1095F5
:100A400009F4B2C010E01C871E851030D9F41B8554
:100A50001A931F851A9318851A93C3DC23961B8556
:100A6000143031F41FEF1093B501FE0136964CC0DF
:100A70001B85123009F079C00E811A810117C9F166
:100A800074C037C0113021F51B851A931F851A9346
:100A90001F811A93A6DC23961B85123029F40D8141
:100AA00019810117A1F425C01B85143009F05DC020
:100AB0001FEF1093B501FE0135962497FB83EA835F
:100AC00019E0198310E018830E94211D24964DC05F
:100AD000123029F51B851A931F851A931A851A93CC
:100AE00080DC23961B85123039F408851C810117A0
:100AF000E1F51FEF188339C01B851430B1F51FEFE6
:100B00001093B501FE0138962497FB83EA8319E020
:100B1000198310E018830E94211D249626C01330EB
:100B200021F51B851A931F851A9319851A9359DC91
:100B300023961B85123039F40F811B810117A9F40C
:100B40001FEF188312C01B85143079F41FEF109328
:100B5000B501FE0137962497FB83EA8319E01983D8
:100B600010E018830E94211D24961B85143081F407
:100B7000198513951987143021F018F01F851395E6
:100B80001F871985173021F018F01F851D5F1F87FB
:100B9000FE013B962497FB83EA8314E0198310E05F
:100BA00018830E94211D24961881112391F110E0D1
:100BB000188312E01B8710E01D87153618F518E022
:100BC0001A931F851A9365DB239610E001E00E94BB
:100BD0002D190E851A85011721F410E007E00E94F7
:100BE0002D19FE013E962497FB83EA8313E01983B7
:100BF00010E018830E94211D24961D8513951D87E2
:100C00001123D9F61A851A951A8712E01F8710E06A
:100C10001987FE013E962497FB83EA8313E019832C
:100C200010E018830E94211D24961A851F3F10E0B2
:100C300009F41FEF1F930E945F180F91102B012FD3
:100C400010918F01102B09F4D8CE0895CC2009F40F
:100C500082C010E0C12E10917D01153029F01730AF
:100C600019F0193009F01B3059F510917C011A93D5
:100C700010E01A930EDB239610E008E00E942D1975
:100C800010917C011A9311E01A9303DB239610E074
:100C900008E00E942D1910917C011A9312E01A931A
:100CA000F8DA239610E001E00E942D1910917C01E2
:100CB0001A9313E01A93EDDA239610E001E034C0A2
:100CC00010917D01143029F0163019F0183009F018
:100CD0001A3069F510917C011A9310E01A93D9DA51
:100CE000239610E001E00E942D1910917C011A93C7
:100CF00011E01A93CEDA239610E001E00E942D193C
:100D000010917C011A9312E01A93C3DA239610E033
:100D100008E00E942D1910917C011A9313E01A9398
:100D2000B8DA239610E008E00E942D1914C0109143
:100D30007C011A93109198011A93ABDA2396E8E993
:100D4000F1E02497FB83EA8313E0198310E0188312
:100D50000E94211D2496089508811981E1E9F1E09E
:100D6000B2E00E940E1D72DF10918F0110951F934B
:100D70001127062D027009F410950F91102B99F38D
:100D800010918F01112319F11091BA011123E9F08B
:100D900085DB219613E000E71A930A9319E11A9371
:100DA0000E94B218239612E003E91A930A9312E301
:100DB0001A930E94B218239613E000E71A930A933D
:100DC00019E11A930E94B21823961FEF01C010E098
:100DD000089522971091B201112309F1E89457F870
:100DE00048E410E0312FE89440F8A0E0B0E050E093
:100DF0000E941A1818E4412FFE01A2E0B0E00E9400
:100E00000C181881098127E00E94FD1C19830883B2
:100E1000A2E3B0E0689445F80E94141C02C010E000
:100E200000E008951091B301112379F01981185F42
:100E30001983E89457F848E6312FE89440F8FE010A
:100E4000A1E0B0E050E00E941A1808952197109197
:100E5000B3011123B9F01981185F1983E89457F889
:100E600048E6312FE89440F8A0E0B0E050E00E945E
:100E70001A1818E6412FFE01A1E0B0E00E940C18FC
:100E8000188101C010E0089521971091B30111233A
:100E900009F446C0E89457F848E610E0312FE8948A
:100EA00040F8A0E0B0E050E00E941A1818E6412F88
:100EB000FE01A1E0B0E00E940C1818810E94461DBE
:100EC0001093A701E89457F848E611E0312FE89411
:100ED00040F8A0E0B0E00E941A1818E6412FFE0189
:100EE000A1E0B0E00E940C1818810E94461D1093EA
:100EF000A601E89457F848E612E0312FE89440F84C
:100F0000A0E0B0E00E941A1818E6412FFE01A1E00F
:100F1000B0E00E940C1818810E94461D1093A50194
:100F2000089521971091B3011123C1F11091A701E8
:100F30000E944E1D1F771883E89457F848E610E08A
:100F4000312FE89440F8FE01A1E0B0E050E00E94AB
:100F50001A181091A6010E944E1D1883E89457F8A4
:100F600048E611E0312FE89440F8FE01A1E0B0E03E
:100F700050E00E941A181091A5010E944E1D1F7387
:100F80001883E89457F848E612E0312FE89440F8C7
:100F9000FE01A1E0B0E050E00E941A1808952197E8
:100FA0001091B301112309F444C0E89457F848E6BE
:100FB00013E0312FE89440F8E8EAF1E0A1E0B0E076
:100FC00050E00E941A181091A9010E944E1D18832A
:100FD000E89457F848E614E0312FE89440F8FE0111
:100FE000A1E0B0E050E00E941A181091AA010E94FE
:100FF0004E1D1883E89457F848E615E0312FE89421
:1010000040F8FE01A1E0B0E050E00E941A181091F3
:10101000AB010E944E1D1883E89457F848E616E08D
:10102000312FE89440F8FE01A1E0B0E050E00E94CA
:101030001A18089521971091B301112309F459C08A
:10104000E89457F848E613E0312FE89440F8A0E020
:10105000B0E050E00E941A1818E6412FE8EAF1E0EB
:10106000A1E0B0E00E940C18E89457F848E614E0BC
:10107000312FE89440F8A0E0B0E00E941A1818E67A
:10108000412FFE01A1E0B0E00E940C1818810E94DF
:10109000461D1093A901E89457F848E615E0312F52
:1010A000E89440F8A0E0B0E00E941A1818E6412F3A
:1010B000FE01A1E0B0E00E940C1818810E94461DBC
:1010C0001093AA01E89457F848E616E0312FE89407
:1010D00040F8A0E0B0E00E941A1818E6412FFE0187
:1010E000A1E0B0E00E940C1818810E94461D1093E8
:1010F000AB010895F8941FE741221091A7010E94C7
:10110000E4181091A6010E94F3181091A5010E9405
:10111000F91810E8412A78940895F8941FE74122BD
:101120001091A8010E9415191091A9010E94FF18A1
:101130001091AA010E9407191091AB010E940F198A
:1011400010E8412A7894089510916B011093A7013B
:1011500010916C011093A60110916D011093A501DF
:101160000895109171011093A80110916E011093D0
:10117000A90110916F011093AA01109170011093B1
:10118000AB010895EAE0F0E0FA93EA9310E01083EF
:1011900013E01A9310810881011720F1EAECF1E0C5
:1011A0001127EA0DF11FEF93FF931A2D1A934EDECC
:1011B0002296FF91EF911083E6ECF1E01127EA0D02
:1011C000F11FEF93FF931A2D1C5F1A933FDE2296B7
:1011D000FF91EF911083E981FA81108113951083BB
:1011E0001123C9F623961AE01A9330DE2296109343
:1011F000BB010895EAE0F0E0FA93EA9310E010836F
:1012000013E01A93108108810117E8F0AA92EAEC22
:10121000F1E01127EA0DF11F10811A9303DE2296E7
:101220001A2D1C5F1A93E6ECF1E01127EA0DF11F6D
:1012300010811A93F7DD2296E981FA8110811395C6
:101240001083112301F723961AE01A931091BB0122
:101250001A93E8DD229608951A811A3018F410E3E3
:101260000E94661818E0412A06E618E11A930A93CC
:101270001C81CF93DF931A9310E01A9310E01A9316
:1012800010E21A93689443F80E949A1ADF91CF9162
:1012900022961AE30E94661819811A3018F410E396
:1012A0000E94661818E0412A06E618E11A930A938C
:1012B0001B81CF93DF931A9310E01A9310E01A93D7
:1012C00010E21A93689443F80E949A1ADF91CF9122
:1012D00022961AE30E94661818811A3018F410E357
:1012E0000E94661818E0412A06E618E11A930A934C
:1012F0001A81CF93DF931A9310E01A9310E01A9398
:1013000010E21A93689443F80E949A1ADF91CF91E1
:101310002296089518E0412A06E618E11A930A93E6
:101320001C81CF93DF931A9310E01A9310E01A9365
:1013300010E21A93689443F80E949A1ADF91CF91B1
:1013400022961EE20E94661818E0412A06E618E17D
:101350001A930A931B81CF93DF931A9310E01A9389
:1013600010E01A9310E21A93689443F80E949A1AB4
:10137000DF91CF9122961EE20E94661818E0412A62
:1013800006E618E11A930A931A81CF93DF931A9312
:1013900010E01A9310E01A9310E21A93689443F83D
:1013A0000E949A1ADF91CF9122960895CF93DF93EE
:1013B000EAECF1E008811127E00FF11F10811A9388
:1013C000E6ECF1E009811127E00FF11F10811A937B
:1013D00010E01A9341DFDF91CF910895EEECF1E038
:1013E00008811127E00FF11F10811123A9F0E2ED10
:1013F000F1E008811127E00FF11F1083EEECF1E01E
:101400000881E00FF11F10E01083E6EDF1E00881A4
:101410001127E00FF11F10837CD80895EEECF1E066
:1014200008811127E00FF11F10811123F1F0E2ED87
:10143000F1E008811127E00FF11FEF93FF93EDE03A
:10144000F0E00E946A19FF91EF911083E6EDF1E060
:1014500008811127E00FF11FEF93FF93EEE0F0E01A
:101460000E946A19FF91EF91108353D8089510E1FB
:101470001A931091C1011A93D5DC229611E11A93A7
:101480001091C2011A93CEDC2296089510E11A93AE
:10149000DDDC22961093C10111E11A93D7DC22966C
:1014A0001093C2010895CF93DF9318E0412A06E616
:1014B00018E11A930A931DE00E94C91B1AE00E94CA
:1014C000C91BDF91CF91CF93DF9318E0412A06E645
:1014D00018E11A930A93E6E3FBE30E94921A1DE0D7
:1014E0000E94C91B1AE00E94C91BDF91CF91CF93C4
:1014F000DF9318E0412A06E618E11A930A93EAE41A
:10150000FBE30E94921A1DE00E94C91B1AE00E9490
:10151000C91BDF91CF91CF93DF9318E0412A06E6F4
:1015200018E11A930A93E6E5FBE30E94921ADF9111
:10153000CF91CF93DF931091A5011A931091A6013B
:101540001A931091A7011A9387DEDF91CF91CF9361
:10155000DF9318E0412A06E618E11A930A9319E28C
:101560000E94C91B1DE00E94C91B1AE00E94C91BF2
:10157000DF91CF91CF93DF9318E0412A06E618E17F
:101580001A930A93ECE6FBE30E94921ADF91CF9143
:10159000CF93DF931091A9011A931091AA011A9386
:1015A0001091AB011A93B6DEDF91CF91CF93DF9309
:1015B00018E0412A06E618E11A930A9319E20E94FC
:1015C000C91B1DE00E94C91B1AE00E94C91BDF91C4
:1015D000CF91EAE0F0E0FA93EA9310E0108313E091
:1015E0001A9310810881011708F444C0CF93DF9348
:1015F00018E0412A06E618E11A930A93E2E8FBE3B1
:101600000E94921A1A2D1F5FCF93DF931A9310E056
:101610001A9310E01A9310E21A93689443F80E9408
:101620009A1ADF91CF91ECE8FBE30E94921ADF91C6
:10163000CF91CF93DF93AA92B9DEDF91CF91CF9371
:10164000DF9318E0412A06E618E11A930A9319E29B
:101650000E94C91B1DE00E94C91B1AE00E94C91B01
:10166000DF91CF91E981FA811081139510831123C5
:1016700009F0B8CF2396CF93DF9318E0412A06E60E
:1016800018E11A930A93E8E9FBE30E94921A109179
:10169000A801CF93DF931A9310E01A9310E01A93E6
:1016A00010E21A93689443F80E949A1ADF91CF913E
:1016B000E7EAFBE30E94921ADF91CF91CF93DF9389
:1016C00018E0412A06E618E11A930A930091A8014E
:1016D0001127AAE0B0E0E89445F80E94141CFDE34D
:1016E000E2E0E00FF11F0E94921A1DE00E94C91B68
:1016F0001AE00E94C91BDF91CF91CF93DF9318E0CE
:10170000412A06E618E11A930A93ECEAFBE30E94E9
:10171000921AE6E0F0E00E947319CF93DF931A93D8
:101720000A9310E01A9310E01A9310E21A93689447
:1017300043F8689445F8E89454F855F80E94731BF0
:10174000DF91CF9119E20E94C91B1DE00E94C91BC5
:101750001AE00E94C91BDF91CF91CF93DF9318E06D
:10176000412A06E618E11A930A93EBEBFBE30E9489
:10177000921AE8E0F0E00E947319CF93DF931A9376
:101780000A9310E01A9310E01A9310E21A936894E7
:1017900043F8689445F8E89454F855F80E94731B90
:1017A000DF91CF9119E20E94C91B1DE00E94C91B65
:1017B0001AE00E94C91BDF91CF91CF93DF9318E00D
:1017C000412A06E618E11A930A93EAECFBE30E9429
:1017D000921A10917B01CF93DF931A9310E01A9322
:1017E00010E01A9310E21A93689443F80E949A1A30
:1017F000DF91CF91E7EAFBE30E94921ADF91CF914C
:1018000010917B01103059F4CF93DF9318E0412AF7
:1018100006E618E11A930A93E9EDFBE326C01130BE
:1018200059F4CF93DF9318E0412A06E618E11A93A2
:101830000A93E3EEFBE319C0123059F4CF93DF9320
:1018400018E0412A06E618E11A930A93E3EFFBE356
:101850000CC01330A9F4CF93DF9318E0412A06E6B9
:1018600018E11A930A93E8E0FCE30E94921A1DE043
:101870000E94C91B1AE00E94C91BDF91CF9116C0BC
:101880001430A1F4CF93DF9318E0412A06E618E163
:101890001A930A93E7E1FCE30E94921A1DE00E946A
:1018A000C91B1AE00E94C91BDF91CF91ECE0F0E068
:1018B0000E946A19A12ECF93DF9318E0412A06E611
:1018C00018E11A930A93E3E2FCE30E94921ACF9381
:1018D000DF93AA9210E01A9310E01A9310E21A9381
:1018E000689443F80E949A1ADF91CF91E7EAFBE3EC
:1018F0000E94921ADF91CF91AAE0B0E00C9102FF12
:101900000EC0CF93DF9318E0412A06E618E11A9340
:101910000A93E2E3FCE30E94921ADF91CF91AAE0DE
:10192000B0E00C9101FF0EC0CF93DF9318E0412A85
:1019300006E618E11A930A93ECE3FCE30E94921A7C
:10194000DF91CF91AAE0B0E00C9100FF0EC0CF93E1
:10195000DF9318E0412A06E618E11A930A93E8E4B7
:10196000FCE30E94921ADF91CF911A2D103071F48E
:10197000CF93DF9318E0412A06E618E11A930A9301
:10198000E3E5FCE30E94921ADF91CF91CF93DF93BE
:1019900018E0412A06E618E11A930A931DE00E9416
:1019A000C91B1AE00E94C91BDF91CF91CF93DF932F
:1019B00018E0412A06E618E11A930A93E8E5FCE3E9
:1019C0000E94921AEDE0F0E00E946A19CF93DF9333
:1019D0001A9310E01A9310E01A9310E21A93689485
:1019E00043F80E949A1ADF91CF91ECE6FCE30E9443
:1019F000921A1DE00E94C91B1AE00E94C91BDF91C8
:101A0000CF91CF93DF9318E0412A06E618E11A93AD
:101A10000A93E8E7FCE30E94921AEEE0F0E00E94ED
:101A20006A19CF93DF931A9310E01A9310E01A9378
:101A300010E21A93689443F80E949A1ADF91CF91AA
:101A4000ECE8FCE30E94921A1DE00E94C91B1AE018
:101A50000E94C91BDF91CF91CF93DF9318E0412AF9
:101A600006E618E11A930A93E8E9FCE30E94921A49
:101A7000EFE0F0E00E946A19CF93DF93012F112766
:101A800000230AF41FEF1A930A9310E01A9310E050
:101A90001A9310E21A93689443F8689445F8E8940E
:101AA00054F855F80E94731BDF91CF91ECE8FCE3EA
:101AB0000E94921A1DE00E94C91B1AE00E94C91BD5
:101AC000DF91CF9108952197EAEEF1E0EF93FF9334
:101AD0003196FA93EA9317E01A9317EF41221FEB1E
:101AE000412217E00881101BFF91EF91108323968C
:101AF000EAE0F0E0FA93EA93EF93FF93EB81FC8145
:101B00001081FF91EF911083EF93FF93EAEDF1E0E5
:101B10001081FF91EF911A9310810881011750F104
:101B2000EAEDF1E01127EA0DF11F10811B831D3250
:101B300041F01B3231F0193321F018F4103308F062
:101B40001894C1F41B811A9311E01A93FE01EF93CC
:101B5000FF93EAEEF1E0EF93FF9317E01F9390E01D
:101B60000E9481192296E981FA81108113951083D0
:101B7000112399F623961A2D1F5FE981FA811083AC
:101B8000EAEEF1E01FEB4122E89441F800E00E9408
:101B9000ED19089526971091DC01103211F413E02D
:101BA00001C012E01D831091DB011C83143789F5FD
:101BB000CF93DF93FE013596FA93EA9384DFDF91AA
:101BC000CF910093A5010D811091DA01011708F062
:101BD00059F4CF93DF93FE013596FA93EA9373DFBE
:101BE000DF91CF910093A6010D811091DA010117C9
:101BF00008F059F4CF93DF93FE013596FA93EA93F8
:101C000062DFDF91CF910093A7018BD9219672DA21
:101C1000EDC01133B0F1143309F098F51C81115364
:101C2000B12EEAECF1E00B2D1127E00FF11FEF933D
:101C3000FF93CF93DF93FE013596FA93EA9343DF48
:101C4000DF91CF91FF91EF9100830D811091DA0127
:101C5000011708F0A1F4E6ECF1E00B2D1127E00FDD
:101C6000F11FEF93FF93CF93DF93FE013596FA9325
:101C7000EA9329DFDF91CF91FF91EF910083BADAE8
:101C8000B5C0123669F4CF93DF93FE013596FA930F
:101C9000EA9319DFDF91CF91102FEEE0F0E06FC0F3
:101CA000133669F4CF93DF93FE013596FA93EA93E6
:101CB0000ADFDF91CF91102FEFE0F0E060C0143623
:101CC00071F5CF93DF93FE013596FA93EA93FBDE2D
:101CD000DF91CF910093A9010D811091DA010117D5
:101CE00008F059F4CF93DF93FE013596FA93EA9307
:101CF000EADEDF91CF910093AA010D811091DA0104
:101D0000011708F041F5CF93DF93FE013596FA9362
:101D1000EA93D9DEDF91CF910093AB011CC0153659
:101D200069F4CF93DF93FE013596FA93EA93CBDE05
:101D3000DF91CF91102FECE0F0E021C0173779F45C
:101D4000CF93DF93FE013596FA93EA93BCDEDF91E1
:101D5000CF910093A80123D92196DFD947C01D3622
:101D600089F4CF93DF93FE013596FA93EA93ABDEC5
:101D7000DF91CF91102F10937B01E5E0F0E00E94FE
:101D8000541934C0163661F4CF93DF93FE013596B3
:101D9000FA93EA9398DEDF91CF91E6E0F0E01BC082
:101DA0001F3661F4CF93DF93FE013596FA93EA93E1
:101DB0008ADEDF91CF91E8E0F0E00DC0163779F4CC
:101DC000CF93DF93FE013596FA93EA937CDEDF91A1
:101DD000CF91EAE0F0E098010E94641907C018373B
:101DE00029F41091BB011A93F9DA2196EAEDF1E09A
:101DF000EF93FF933196FA93EA931FE01A9317EF4C
:101E000041221FEB41221FE00881101BFF91EF913F
:101E1000108323961091A5011093AC011091A60197
:101E20001093AD010E944F030E9489023CDB08958C
:101E300021970E945F18112309F455C00E9442188F
:101E40001883183069F41091DA01103041F0EAED8E
:101E5000F1E0108111501F3008F01FE0108343C0E3
:101E60001D3041F5EAEDF1E01081103031F0CF93F3
:101E7000DF9390DEDF91CF9101C015DB0E945F18E8
:101E8000112319F00E944218F9CFEAEDF1E0EF9327
:101E9000FF933196FA93EA931FE01A9317EF4122CA
:101EA0001FEB41221FE00881101BFF91EF9110836F
:101EB000239619C018811A3721F018F4103208F04F
:101EC000189489F418811A9311E01A93FE01EF9384
:101ED000FF93EAEDF1E0EF93FF931FE01F9390E093
:101EE0000E948119229608951091B201112309F4DC
:101EF0004FC00E94E90622960093790110937A015F
:101F00001A930A93E6E0F0E00E9473191A930A9379
:101F100010E004E61A930A931FEF0E941B192696FD
:101F20000F931F93E8E0F0E00E947319AAE0B0E07D
:101F3000689445F80E94141C3F912F91020F131FC3
:101F40000093790110937A010091AE011091AF01D5
:101F50001A930A9310E009E01A930A9310E00AE03A
:101F60001A930A931FEF0E941B1926960F931F9333
:101F70000091790110917A01D8012AE030E068944B
:101F800045F80E94351C3F912F91020F131F02C08C
:101F900010E000E00093AE011093AF010895AAD8BD
:101FA0000E94910721960895B8D80E94CF072196E4
:101FB00008950E941B010E944E022196EAEDF1E075
:101FC000EF93FF933196FA93EA931FE01A9317EF7A
:101FD00041221FEB41221FE00881101BFF91EF916E
:101FE0001083239610E8412A78941AEF1093820107
:101FF00010E010937D01E4E0F0E00E946A19153AC8
:1020000071F115EAE4E0F0E00E94541910E0E5E017
:102010000E94541906E6EAE098010E94641910E053
:1020200004E6E6E0F0E098010E94641910E000E0A8
:10203000E8E0F0E098010E94641910E0ECE0F0E0C4
:102040000E9454191AE0EDE00E9454191CE3EEE0DE
:102050000E94541910E0EFE00E945419319610E0EC
:1020600004E60E942D1918E4CED71093B20118E6A9
:10207000CAD71093B30110E004E60E942D1918E6A8
:10208000C2D70091B301102B1093B30110E010934D
:10209000A3011091B201112379F10E94E906229661
:1020A0000093790110937A011A930A93E6E0F0E025
:1020B0000E9473191A930A9310E004E61A930A9384
:1020C0001FEF0E941B1926960F931F93E8E0F0E084
:1020D0000E947319AAE0B0E0689445F80E94141CAD
:1020E000019509F41A9510953F912F91020F131F36
:1020F0000093AE011093AF01E5E0F0E00E946A1991
:1021000010937B0113301FEF08F011270091B301EA
:1021100010231F9314E11A930E9426072296153A62
:1021200010E009F01FEF0F91102379F111E01093E7
:10213000A9011093AA0114E11093AB010E94910729
:1021400021960E94CF072196EAE0F0E0FA93EA9305
:1021500010E0108313E11A9310810881011768F0D1
:10216000AA9210E01A930E9412072296E981FA813E
:10217000108113951083112381F7239614E11A938C
:1021800015EA1A930E941207229610917B011330D0
:102190001FEF08F011270091B301102361F00E9496
:1021A000440721960E941A0821960E94C2080E94A4
:1021B0007A080E948D080E94890275D910E004E611
:1021C0000E942D190E944E0221960E94BA04609628
:1021D000CF93DF932DDEDF91CF911091A1011123D9
:1021E00009F43FC010E01093A1011091A5011093D4
:1021F000AC011091A20110951F931091A501103010
:1022000010E009F41FEF0F91102391F01091BB0122
:102210001A93E4D821960E94440721960E941A0836
:1022200021960E947A080E948D081FEF1093A20148
:102230001091A501113031F410E01093A2011FEFAD
:1022400010939E0110917D01103010E009F41FEFF2
:102250000091BF01102319F01FEF1093BE010E94DF
:1022600089021091A001112309F474C010E01093A9
:10227000A0011091A6011093AD010E94A4080E9434
:10228000B1081091BB01143030F50091B6011091E6
:10229000A601011710E009F41FEF1F930091B70189
:1022A0001091A501011710E009F41FEF0F91102301
:1022B00010939001012F1091BD01109510231093E0
:1022C000BC011093BD011091BC01112339F01DE038
:1022D00010937D0103C010E01093BC0110917B01AD
:1022E0001330C0F510917D01103079F41091BE01CA
:1022F000112321F00E94BA04609607C01091C0011A
:10230000112319F00E94F803279610E01093BE01E4
:102310001091BB011430F0F4EEECF1E00091BB0140
:102320001127E00FF11F11911123A1F0E2EDF1E06F
:102330000091BB011127E00FF11FB08070E07B1509
:1023400008F4BA94E2EDF1E00091BB011127E00F2F
:10235000F11FB19210919F01112309F40BC110E0FC
:1023600010939F011091A7011E3110E009F41FEF97
:1023700000919E011023A9F010E010939E01EFE060
:10238000F0E0A8D7A12E1A2D103059F00091A70126
:102390001A2D100F1093A7010E94910721960E94F9
:1023A0007A08E4EAF1E02497FB83EA8319E01983D1
:1023B00010E018830E94211D249696DD0E94A40837
:1023C0001091BB01143048F5E6ECF1E00091BB013F
:1023D0001127E00FF11F10811093B601EAECF1E034
:1023E0001127E00FF11F10811093B701E6EDF1E026
:1023F0001127E00FF11F10811093B801E2EDF1E019
:102400001127E00FF11F10811093B901EEECF1E0FC
:102410001127E00FF11F11910AC010E01093B601CF
:102420001093B7011093B9011093B80110E0109305
:10243000BA011091C3011123B9F11FEF1093B40138
:1024400011270091C20170E0701720F40A950093E3
:10245000C2011FEF109541F11BE31093C2010E94CE
:102460004E02219611E008EB1A930A931AE01A9390
:1024700079D6239611270091C10170E0701720F4DE
:102480000A950093C1011FEF109571F01FEF109393
:10249000C50110E01093C30110E01093C2011CE0CD
:1024A00010937D010E9489021091BC01112321F13A
:1024B00010E01093BC011FEF1093BA01EEECF1E0B5
:1024C0000091BB011127E00FF11F1FEF108310E0F7
:1024D0001093B901E2EDF1E0E00FF11F1083EEE09F
:1024E000F0E0F8D61093B801E6EDF1E01127E00F27
:1024F000F11F1091B80111931091BA01112369F1E4
:102500001091B901103049F5E6EDF1E00091BB0101
:102510001127E00FF11F00810093B80170E07017E0
:1025200018F40A950093B801E6EDF1E00091BB01C3
:102530001127E00FF11F1091B8011193103031F401
:102540001091BB011A930E94EE0906C00E944E0230
:10255000219614E01A93DCD521961091C501112320
:1025600039F00E944E02219614E01A93E6D5219686
:102570000E944F0310918B01112309F4EBC010E06E
:10258000109397010AEF0093950110939601109113
:102590007D011030D9F4EBEBF1E02497FB83EA8363
:1025A00014E0198310E018830E94211D24960E94D4
:1025B000FA0811E010937C010E94F60212E00EEE80
:1025C000E5E7F1E0B1E00E940E1D99C0163039F444
:1025D000E5EAF1E02497FB83EA8317E108C01730AE
:1025E00081F4E6EAF1E02497FB83EA831BE3198395
:1025F00010E018830E94211D2496D1DC0E944F0315
:102600007EC01430B9F4EAECF1E00091BB0111276F
:10261000E00FF11FB080EBE0F0E02497FB83EA834A
:1026200017E1198310E018830E94211D2496EAEC1B
:10263000F1E018C0153009F5E6ECF1E00091BB01BE
:102640001127E00FF11FB080EBE0F0E02497FB834F
:10265000EA831BE3198310E018830E94211D24964E
:10266000E6ECF1E00091BB011127E00FF11FB19200
:102670000E94FA080E94F60242C0183039F4E9EAD2
:10268000F1E02497FB83EA831FE108C0193071F45D
:10269000EAEAF1E02497FB83EA831CE0198311E066
:1026A00018830E94211D24967FDCA8CF1A3091F454
:1026B000E1ECF1E02497FB83EA831BE3198310E04C
:1026C00018830E94211D24960E94370A10E010935F
:1026D000C40194CF1B3099F4E2ECF1E02497FB8322
:1026E000EA831BE3198310E018830E94211D2496BE
:1026F0000E94370A10E01093C4010E944F0315E0B6
:1027000008E21A930A9312E01A932CD523960091AB
:102710009501109196011A930A930E94AC06229695
:1027200011270091970172E0071720F40395009399
:1027300097011FEF109531F010E00BE40093950125
:102740001093960110918F01109509F420CF10E09D
:1027500010938B0110918C01112309F4F1C010E04A
:10276000109397010AEF0093950110939601109131
:102770007D011030D9F4EBEBF1E02497FB83EA8381
:1027800010E0198314E018830E942E1D24960E94E5
:10279000FA0811E010937C010E94F60212E00EEE9E
:1027A000E5E7F1E0B1E00E940E1D9FC0163049F44C
:1027B000E5EAF1E02497FB83EA8310E0198317E14F
:1027C0000AC0173081F4E6EAF1E02497FB83EA833C
:1027D00010E019831BE318830E942E1D2496DFDB73
:1027E0000E944F0382C01430B9F4EAECF1E000918A
:1027F000BB011127E00FF11FB080EBE0F0E0249760
:10280000FB83EA8310E0198317E118830E942E1DD1
:102810002496EAECF1E018C0153009F5E6ECF1E099
:102820000091BB011127E00FF11FB080EBE0F0E059
:102830002497FB83EA8310E019831BE318830E942B
:102840002E1D2496E6ECF1E00091BB011127E00F6C
:10285000F11FB1920E94FA080E94F60246C0183099
:1028600049F4E9EAF1E02497FB83EA8311E0198354
:102870001FE10AC0193071F4EAEAF1E02497FB8302
:10288000EA8311E019831CE018830E942E1D249610
:102890008BDBA6CF1A3091F4E1ECF1E02497FB83B7
:1028A000EA8310E019831BE318830E942E1D2496EF
:1028B0000E94370A10E01093C40192CF1B30A9F494
:1028C000E2ECF1E02497FB83EA8310E019831BE339
:1028D00018830E942E1D24960E94370A10E0109340
:1028E000C4010E944F030E944F0315E008E21A93AF
:1028F0000A9312E01A9336D4239600919501109111
:1029000096011A930A930E94AC0622961127009111
:10291000970172E0071720F40395009397011FEFCA
:10292000109531F010E00BE400939501109396019F
:1029300010918F01109509F41ACF10E010938C01BB
:1029400010918D01112309F460C010E01093C501AE
:102950001093C3011093C40110917D01103059F4FC
:102960001091BB01133019F010F016E001C014E013
:1029700010937D0115C0143011F415E00FC015300F
:1029800011F416E00BC0163011F417E007C0173031
:1029900011F418E003C0183031F419E010937D01F0
:1029A0000E944F0320C01930D9F40E944E02219694
:1029B00015E008E21A930A9314E11A93D3D32396ED
:1029C00013E000E71A930A9314E11A93CBD32396EA
:1029D00015E008E21A930A9314E11A93C3D32396DD
:1029E00010E010937D0115E008E21A930A9312E0BB
:1029F0001A93B8D3239613E008EE1A930A930E9411
:102A0000AC06229610E010938D0110918E011123D7
:102A100009F4E6C010E01093C50115E008E21A932E
:102A20000A9312E01A939ED323961091BA0110953F
:102A300009F46CC010917D011030D9F411E01093AD
:102A40007C011091BB01143018F40E94F6020BC0F7
:102A50000E9439031091C401109511F00E94460A9A
:102A60001AE010937D0110E01093C3011093C4018C
:102A70004BC01A3011F41BE045C01B3091F412E03A
:102A800010937D011FEF1093C3010E944E02219607
:102A900013E000E71A930A9319E11A9363D323967C
:102AA00033C0123001F51091C3011093C40110E03E
:102AB0001093C3010E944E02219615E008E21A937A
:102AC0000A9314E11A934ED3239613E000E71A9366
:102AD0000A9314E11A9346D3239615E008E21A9359
:102AE0000A9314E10BC010E01093C3010E944E0240
:102AF000219613E000E71A930A9319E11A9332D34F
:102B0000239610E010937D010E944F0313E008EE1E
:102B10001A930A930E94AC0622961093900110918A
:102B2000BA01112309F10E94F6021091900110954B
:102B300091F01091BB011A930E940E0A21960E94F7
:102B40004E02219613E000E71A930A9319E11A93B3
:102B500009D3239606C01091BB011A930E94EE0977
:102B6000219610E010937D010091C3011091C501E1
:102B70001023B9F00E944E02219613E000E71A9349
:102B80000A9319E11A93EED2239610E010937D0177
:102B90000E944F0310E01093C3011093C5011093DE
:102BA000C401109190011F9310917D011A3019F00A
:102BB0001B3009F0123010E009F41FEF0F911023C1
:102BC00061F00E944E02219611E01A93B6D221962E
:102BD00010E010937D010E944F0310E010938E01CE
:102BE0000E9426060091C3011091BA01102B39F002
:102BF00010919C01E894112329F0689403C0E89493
:102C00003099689418B113F918B9E2CA0000FECFE0
:102C1000F89412E00BE21EBF0DBF1127E0E1F0E0D7
:102C2000A0E0B0E031960000319711F01D93FCCF89
:102C3000A0E0B1E0E0E0F8E031960000319711F05B
:102C40001D93FCCFCDE5D2E0F8941FE7412213E8B5
:102C50001093000116BD14E015BD11E010936E0035
:102C600018E11093C10010E11093C40010E010931C
:102C7000C50010E0109301011093020110930301AD
:102C80001091C10010681093C10010E0109324014E
:102C900010932501109326011EE01093C20010919D
:102CA000C6001CE01093B8001FEF1093740112E3EC
:102CB00010937301442455247CC9EF93FF930F9321
:102CC0001F931FB71F931091000106B5100F16BD7B
:102CD0001FE741220E94280000917201002319F091
:102CE0000A9500937201AF93BF93E7E6F1E0A081EC
:102CF000B1811196A083B183A281B381119604EFB3
:102D000011E0A017B10738F0A01BB11BA283B38359
:102D1000BF91AF9105C0A283B383BF91AF9169C04A
:102D20002F932227EBE6F1E01081018113951C33EC
:102D300008F442C010E003951193216011810C3317
:102D4000E8F100E013950193226001811831A0F1B0
:102D500010E00395119324601181183050F01795FD
:102D600020F4111F0F3150F119C0111F003230F142
:102D700015C0179520F4111F003200F10FC0111F6C
:102D8000123051F43F93328133703F9111F40E3180
:102D900001C00D3198F002C00F3180F001E01395B1
:102DA000019301811D3040F011E003951193043629
:102DB00028F000E0019303C0108301C00083022FBC
:102DC000047041F0109171011395173008F010E074
:102DD000109371012F930E9417012F912F9321704F
:102DE00011F00E9413012F91227011F00E940F0127
:102DF0002F91992009F09A94E0917501F091760154
:102E0000FF2311F4EE2331F03197E0937501F09335
:102E1000760119F4162D1E7F612EE0919101F0913B
:102E20009201FF2311F4EE2331F03197E0939101E9
:102E3000F093920119F4162D1D7F612E10E8412A9E
:102E40001F911FBF1F910F91FF91EF911895EF9365
:102E5000FF930F931F931FB71F9310912601112308
:102E600031F41091C1001F7D1093C10020C000916A
:102E700025011127E7E2F1E0E00FF11F1081109327
:102E8000C600109126011A951093260129F410917D
:102E9000C1001F7D1093C1001091C00010641093F9
:102EA000C0000395003409F40027009325011F9109
:102EB0001FBF1F910F91FF91EF911895EF93FF9313
:102EC0000F931F931FB71F9310910301103219F432
:102ED0000091C6001BC01091C6001F9311270091DE
:102EE0000101E4E0F1E0E00FF11F1F911083109168
:102EF00003011395109303010395003209F4002791
:102F0000009301010091C00007FDDECF1F911FBF9C
:102F10001F910F91FF91EF91189510E0109374019C
:102F20001091B9001C7F103019F410E91093BC0007
:102F300014EA1093BC001091730110937201109168
:102F4000BC00107839F4109172011123C1F710936D
:102F5000BC004FC01091B9001C7F183009F449C063
:102F600046C057FA8EF01091B9001C7F183FD9F374
:102F7000103021F410E91093BC00000004E9009324
:102F8000BC001FEF1093740108954093BB0014E838
:102F90001093BC0010917301109372011091BC004A
:102FA000107829F4109172011123C1F722C01091F9
:102FB000B9001C7F1832D9F01831C9F01034B9F0BB
:102FC00018C014EC11976AF209F414E81093BC00CD
:102FD0001091BC0017FFFCCF1091B9001C7F183571
:102FE00011F0103531F41091BB001193EACF1FEFAF
:102FF00008951091B9001C7F103019F410E9109356
:10300000BC0010E00895412F88DF8894441FBDDF85
:10301000B12FA7DF1B2F089580DF0894441FB5DF71
:10302000112319F0CEDF112311F7E3DF0FEF009327
:103030007401089572DF8894441FA7DF1123E1F023
:10304000432FA3DF1123C1F040FA26F4422F9DDF66
:10305000112391F0AA2311F4BB2361F0552311F43D
:10306000419106C0513011F4459102C041D13196D1
:103070001197EDCF76DFBBCFBCDF0FEF009374016C
:1030800011270895109103011123E1F3009102012A
:103090001127E4E0F1E0E00FF11F1081F894E091D6
:1030A0000301EA95E093030147FC78940091020143
:1030B0000395003209F400270093020108951127B7
:1030C00000910301002309F0109508950091260155
:1030D0000034E1F3F89400912401E7E2F1E0E00F1D
:1030E0000027F01F1083009126010395009326010D
:1030F000009124010395003409F400270093240172
:103100000091C10000620093C10047FC78940895CB
:10311000239717E000ED1A83098319E1188322D061
:1031200013E008EE1A83098319E118831BD01B8171
:103130001A951B8371F723960895239716E000E4F0
:103140001A83098319E118830DD013E000E21A8372
:10315000098319E1188306D01B811A951B8371F727
:1031600023960895579AE89445F8A981BA81E8E230
:10317000F0E0EA17FB0742F0AA2321F49880992097
:10318000F1F70895A8E2B0E0E0E1F7E2EA17FB0703
:1031900012F4A0E1B7E2EE27FF2740E05AE668E12B
:1031A00070E092D31A8309839880A981BA815F9ACB
:1031B00000001197E9F7A981BA815F980000119783
:1031C000E9F7992091F708951C3308F010E0F8947E
:1031D000E7E6F1E0148310E011931193119311933A
:1031E00047FC789408951C3308F010E010936C01AC
:1031F0000895183108F010E010936D01089511231F
:1032000011F0103208F011E010936E0108951123AF
:1032100011F01D3008F011E010936F01089514367D
:1032200008F010E0109370010895173008F010E0D6
:10323000109371010895112319F4E89445F802C020
:10324000689445F80C811D81AA81BB81EDD2A8014B
:10325000BF01A881B98180D30895A8011127411722
:10326000510749F00AE71CE0015010400000E1F767
:1032700041505040B9F70895112331F006E20A9504
:103280000000E9F71A95D1F708952150304018F061
:1032900011911D93FACF089547FC7894F999FCCFCA
:1032A000F894F999F9CF0895F7DF4F93E1BDF2BD96
:1032B000F89A000040B5141719F010BDFA9AF99A5F
:1032C0004F9147FC78940895122FEEDF132F31961B
:1032D000EBDF0895E1DFE1BDF2BDF89A000010B523
:1032E00047FC78940895F6DF012F3196F3DF0895B7
:1032F000D3DFE1BDF2BDF89A000040B547FC7894F9
:1033000008953F912F910F91BF91AF91FF91EF9150
:103310002F933F93892F80711C911395892F837070
:1033200051F0869531F41F93D5DF312F1F913196DF
:1033300003C0359101C03191332329F0892F807169
:103340002C91011708F40895402F411B542F431B63
:1033500050F1211730F4632F620F061720F1062F6A
:1033600022C0AF93BF93EF93FF93522F511B54177B
:1033700008F4452F5527A10FB51FA40FB51F1196AF
:10338000FD01E30FF51F542F5395892F80710E9087
:1033900002925A95E1F7FF91EF91BF91AF91012F02
:1033A000030F040F11F4340F3395892F80710C93A0
:1033B0002227A10FB21F892F837041F0869521F437
:1033C00089DF012E319603C0059001C00190892F3D
:1033D00080710D923A9579F7089533272227BB27FC
:1033E000AA2746FA1EF476DF319601C01191112307
:1033F00019F4112700270895512F002311F0539538
:103400006DC046FA1EF466DF319601C01191E89452
:1034100042F81D3259F45A9561F3689442F846FA1D
:103420001EF458DF319612C0119110C01B3259F4AE
:103430005A95F9F2E89442F846FA1EF44BDF3196B9
:1034400005C0119103C0143209F448C0052F0A9534
:1034500082F255277727992788270F9307C00F9364
:1034600046FA1EF437DF319601C01191103310F186
:103470001A3300F51053412F8D01000F111F771FD4
:10348000991F000F111F771F991F0A0F1B1F781F0D
:10349000981F720F931F000F111F771F991F040FA2
:1034A000151F781F981FD801272F392F0F910A95C4
:1034B0004AF0D5CF0F91689441F8112700273327A0
:1034C000222708958D0142FA46F401501040204011
:1034D000304020953095109500950895E89442F875
:1034E0005A95D9F3593038F746FA1EF4F3DE31967F
:1034F00001C01191113608F010521033E0F21A3366
:1035000028F01134C0F21734B0F6175F1F7004E0D2
:10351000AA0FBB1F221F331F0A95D1F7A12B5A9563
:1035200019F7D0CFB591BB2321F0159132D1BA95BF
:10353000E1F70895CF93DF93269709851127980126
:103540000F7022952F70B901660F771F660F771FD6
:10355000A801461B570B4451504048835983A90189
:10356000440F551F465250404A835B8344E04C83CE
:103570001D83FE0112E080819181A281B381992394
:103580001AF40A961197FBCF81939193CD011A9566
:1035900019F0A281B381F3CF8193908328853F8175
:1035A0004E8153E080E0FE01DE011A9603D0DF91E8
:1035B000CF910895AF93BF931D910D916C91DF0151
:1035C0006A930A931A93882319F0222309F02A9503
:1035D000652F752F770F7A950027A70FB01F1E91C3
:1035E000112319F411976A95D1F7662311F41196F6
:1035F00063951296332321F4222309F040C051C071
:10360000222309F02A950027DF01351780F4732F54
:10361000770FA70FB01F1EE21E93361710F0632F0F
:103620006395762F770FDF01A70FB01F28C0A70F74
:10363000B01F1196732F7E5F271720F0022F071BF4
:10364000039501C00027202F002321F0142FA1D0C3
:103650000A95FACF732F751B652F270F882321F04A
:10366000182F97D0882723952E5F10E392D01EE263
:1036700090D010E37723A9F08CD07A95FBCF621716
:1036800010F022270EC0261B022F55FA36F468A12F
:10369000601708F4061B601B68A3142F7AD00A95E4
:1036A000E1F755FA1EF468A1662369F0882311F04A
:1036B000182F6FD01E91112309F06BD01E9110634B
:1036C00068D06A95B9F754FA2EF418A1112311F0B5
:1036D0001EE25FD0BF91AF9118811D9319811D9398
:1036E0001A811D930895CF93DF932A97AD85BE85E8
:1036F000882745FA3EF4BB232AF48DE2A150B0405E
:10370000A095B0958F938B2F82958F708051382F15
:10371000380F8E51282F8E5C082F8B2F8F70280F1B
:10372000280F080F8751182F180F180F8A2F82950E
:103730008F70180F080F111F001F00958894001F2D
:103740008A2F8F70080F331F87E0482F8AE0080FF9
:103750001A95E8F7180F2A95E8F7280F3A95E8F731
:10376000380F4A95E8F7DE01FF27E0E195E070E0C9
:1037700081918D937D939A95D9F72C853B854A85C8
:1037800055E08F91FE01DE011F9614DFDF91CF918E
:103790000895EF93FF9343FAD6F01F93E981FA81DE
:1037A0001881112331F41F91689441F8FF91EF9132
:1037B00008951A9518831F9146FA16F0119302C0C6
:1037C00073DD3196FA83E983FF91EF910895E881E3
:1037D000F9811F930F932F933F93AF93BF936F93F1
:1037E0007F934F935F938F939F9309959F918F91B1
:1037F0005F914F917F916F91BF91AF913F912F91C9
:103800000F911F91FF91EF910895332729E0111F28
:103810002A9511F4032F0895331F301B18F4300F2D
:103820008894F5CF0894F3CF9801442745FA86F49D
:10383000BD013702F001269F80013603F40B100D05
:10384000E11DF41F7203F40B100DE11DF41F089528
:103850003B9FF0012A9F80013A9F100DE11DF41F4C
:103860002B9F100DE11DF41F0895552745FA96F47E
:103870005B2F432F4B27E89447FF45F837FF04C0E1
:10388000219509F43A953095B7FF04C0A19509F444
:10389000BA95B095EE27FF1B11E1AA1FBB1F1A9521
:1038A00041F48D0145FA26F4019509F41A95109515
:1038B0000895EE1FFF1FE21BF30B20F4E20FF31F2E
:1038C0008894EBCF0894E9CF112745FAD6F4172F47
:1038D0008F2F8727E89487FF45F8F7FF08C0A0954A
:1038E000B095E095F095AF5FBF4FEF4FFF4F77FF7B
:1038F00008C040955095609570954F5F5F4F6F4F32
:103900007F4F1F93882799270024112411E2441F19
:10391000551F661F771F1A9571F48A019B0145FA9E
:1039200046F40150104020403040209530951095CD
:1039300000955F910895881F991F001C111C8A1B18
:103940009B0B0E0A1F0A30F48A0F9B1F0E1E1F1EB0
:103950008894DDCF0894DBCF45FA1EF0E0E0F0E07C
:1039600021C0BB231AF4EFEFFFEF02C0E0E0F0E06C
:10397000172F8F2F8727E89487FF45F8F7FF08C098
:10398000A095B095E095F095AF5FBF4FEF4FFF4F1B
:1039900077FF08C040955095609570954F5F5F4FD9
:1039A0006F4F7F4F1F93882799270024002711E22C
:1039B000441F551F661F771F1A9571F48A019B01DA
:1039C00045FA46F401501040204030402095309593
:1039D000109500955F910895881F991F001C001F86
:1039E0008A1B9B0B0E0A0F0B30F48A0F9B1F0E1EB7
:1039F0000F1F8894DDCF0894DBCF222349F02031BC
:103A000018F0112700270895169507952A95E1F7D4
:103A10000895000F111F2A95E1F70895F894019376
:103A20001193A62D112341F4002331F4B095AB235B
:103A30006A2E47FC78940895AB2B6A2E47FC789445
:103A40000895EA81FB8100812981021718F01FEF98
:103A5000088102C00395112700830895EA81FB8144
:103A600000812981201718F01FEF088102C00A95F4
:103A70001127008308951A812981121728F02881BF
:103A8000211710F01FEF089511270895012F0F70CF
:103A9000105110F0065FFCCF102F089500271A5028
:103AA00010F0005FFCCF165F100F08953327222718
:103AB000085E134010F0305FFBCF08511C4F0456D6
:103AC000104010F03F5FFBCF0C591F4F0A5010F011
:103AD000205FFCCF065F200F890108951770EEE28A
:103AE000FBE30024E10FF01DC8951C9110291C93E5
:103AF00008951F70183010F011961850EEE2FBE395
:103B00000024E10FF01DC8951C9110291C93089505
:103B10001770EEE2FBE30024E10FF01DC8951127BA
:103B20000C91202F002101131FEF08951895010219
:103B3000040810204080134858332054696D6520D4
:103B4000456E67696E6520312E330B5365742076A0
:103B5000616C7565733A1554696D653A20202020B3
:103B6000742048483A4D4D3A535320281544617407
:103B7000653A20202020642044442E4D4D2E595972
:103B8000202809416C61726D3A2020200B204848A2
:103B90003A4D4D202020205B0E5765656B6461799E
:103BA0003A2077205820280429202D200E54656DB6
:103BB000704661633A2066205820280E54656D7067
:103BC0004F66733A206F205820280E4D6F64653A77
:103BD000202020206D205820280954696D65206F11
:103BE0006E6C790F54696D652F4461746520616C4A
:103BF00074726E1454696D652F446174652F546539
:103C00006D7020616C74726E0E53657269616C2008
:103C1000446973706C61790B54656D706572617481
:103C20007572650E456E61626C65733A2065205849
:103C3000202809486F7572416E696D200B4D696EC1
:103C4000757465416E696D200A436C6F636B5469CE
:103C5000636B20046E6F6E6513536E6F6F7A652011
:103C600054696D653A202073205820280B29202D97
:103C7000204D696E7574657313416C61726D204CD3
:103C8000656E6774683A2062205820280B29202D21
:103C9000205365636F6E647319436F72726563744A
:103CA000696F6E20706572206461793A20632058D4
:103CB00020280100010100010100010100000000B5
:103CC000000062026143034363026343000000009B
:103CD00000003F065B4F666D7D077F6F777C585E07
:103CE000797154044C4C1C5858445C5C0000000032
:103CF0000000080008080008080808080000000084
:103D000000000653756E646179000000064D6F6E09
:103D1000646179000000075475657364617900007F
:103D2000095765646E6573646179085468757273C8
:103D30006461790006467269646179000000085385
:083D4000617475726461790081
:100000000C9408160C94961D0C94961D0C94961D39
:100010000C94961D0C94961D0C94961D0C94961D94
:100020000C94961D0C94961D0C94961D0C94961D84
:100030000C94961D0C94961D0C94961D0C94961D74
:100040000C945D160C94961D0C945E170C94271757
:00000001FF
